:100000000EC01BC0CFC019C018C017C016C015C085
:1000100014C013C017C011C010C00FC00EC01124EF
:100020001FBECFEDCDBF10E0A0E6B0E001C01D9235
:10003000A536B107E1F735D1ACC1E2CFC19808953B
:10004000C19A08951F920F920FB60F9211242F9309
:100050003F934F935F936F937F938F939F93AF9350
:10006000BF93EF93FF93809160008F5F8D3718F4FB
:10007000809360000EC010926000809163009091A8
:100080006400009729F001979093640080936300C7
:10009000D5DF80916000823009F4D2DF8091610069
:1000A000882319F0815080936100FF91EF91BF91F7
:1000B000AF919F918F917F916F915F914F913F9100
:1000C0002F910F900FBE0F901F9018959C01862FB7
:1000D0002115310599F090E068EE73E034D1B90153
:1000E00044D180E090E0E0E11DC048EE53E0000024
:1000F00041505109E1F72F5F3F4F04C020E030E04D
:10010000862F90E02817390780F3089540E050E0EB
:1001100000004F5F5F4F42175307D1F748B34E2798
:1001200048BB01968617970789F7089568E28EE520
:1001300090E0CCDF68E287E790E0C8DF68E28AE61B
:1001400090E0C4DF68E28FE990E0C0DF68E280E021
:1001500090E0BCDF68E28FE990E0B8DF68E28AE611
:1001600090E0B4DF68E28EE590E0B0DF68E287E718
:1001700090E0ACCF6AE08FE490E0A8DF6AE08BE328
:1001800090E0A4CF6AE087E790E0A0DF6AE08EE528
:1001900090E09CDF6AE08FE490E098DF6AE08BE318
:1001A00090E094CF1F920F920FB60F9211242F93CD
:1001B0003F934F935F936F937F938F939F93AF93EF
:1001C000BF93EF93FF938091610081111FC0B2999B
:1001D0000DC081E080936200809163009091640083
:1001E000CC969093640080936300C4DFB3990EC0F3
:1001F00081E0809362008091630090916400885A4E
:100200009D4F9093640080936300BCDF82E08093F5
:100210006100FF91EF91BF91AF919F918F917F917D
:100220006F915F914F913F912F910F900FBE0F9063
:100230001F90189564E18EE391E048DF65E080E06F
:1002400090E044DF64E18EE391E040CF87B38261C8
:1002500087BB88B38C6088BB089582E08ABD83E049
:1002600083BF80E189BF8DE789BD089519BE0895D8
:100270008BB780628BBF85B38C6085BB089585B7D3
:10028000877E806185BF85B7806285BF85B78062C4
:1002900085BF889585B78F7D85BF85B78F7D85BFE5
:1002A000089584E090E0909364008093630010923E
:1002B000620010926100CADFDBDFC2DE7894CDDF1E
:1002C0002FE38DE093E0215080409040E1F700C0A3
:1002D000000020E014C0B29B02C0B39909C02F5F98
:1002E000273938F010926400109263001092620077
:1002F00020E083EC99E00197F1F700C000008091C5
:10030000630090916400892B21F08091620081113B
:10031000E2CFACDF80916200882319F091DE06DF26
:1003200003C08CDE87DF8CDE1092640010926300C5
:10033000109262001092610083DEA1DF8091620062
:10034000882391F3BCCF5527002480FF02C0060EFE
:10035000571F660F771F6115710521F096958795D8
:10036000009799F7952F802D0895AA1BBB1B51E18B
:1003700007C0AA1FBB1FA617B70710F0A61BB70B15
:10038000881F991F5A95A9F780959095BC01CD01BA
:060390000895F894FFCF70
:00000001FF
